:100000000C9466000C948E000C948E000C948E0060
:100010000C948E000C948E000C948E000C948E0028
:100020000C948E000C94A1050C948E000C94A604E4
:100030000C94D8040C948E000C948E000C948E00BA
:100040000C948E000C948E000C948E000C948E00F8
:100050000C948E0000000002000000000000000070
:100060000504000700000000000000000000000080
:100070000000000001020408102040800102040872
:100080001020408001020408102040800102040872
:100090001020408002020202020202020404040450
:1000A0000404040403030303030303030101010124
:1000B0000101010100003B00380035003200000062
:1000C0003A003700340031005001080511241FBEEA
:1000D000CFE5D4E0DEBFCDBF10E0A0E6B0E0ECE5B8
:1000E000FEE002C005900D92AE39B107D9F721E0CC
:1000F000AEE9B0E001C01D92AC35B207E1F710E007
:10010000C6E6D0E004C02197FE010E942607C4364F
:10011000D107C9F70E9492050C942C070C9400009B
:1001200061E088E10E94D40660E089E10E94D40683
:1001300061E080E00E94D40660E081E00C94D40687
:1001400060E088E10E94D40660E089E10E94D40664
:1001500060E080E00E94D40660E081E00E94D40666
:1001600060E08DE00E94D40660E08EE00E94D4063C
:1001700060E08FE00E94D40660E080E10C94D40639
:1001800060E088E10E94D40661E089E10E94D40623
:1001900060E080E00E94D40661E081E00C94D40627
:1001A00061E088E10E94D40660E089E10E94D40603
:1001B00061E081E00C94D40660E088E10E94D406FE
:1001C00061E089E10E94D40661E080E00E94D406EB
:1001D00060E081E00C94D40661E08DE00E94D406DA
:1001E00060E08EE00C94D40660E08DE00E94D406BE
:1001F00061E08EE00C94D40661E08FE00E94D406AA
:1002000060E080E10C94D40660E08FE00E94D406A8
:1002100061E080E10C94D40626E040E855E260E01D
:1002200070E086EB90E00E94450461E088E10E9466
:10023000980661E089E10E94980661E08FE00E94E3
:10024000980661E080E10E94980661E08DE00E94DE
:10025000980661E08EE00E94980661E08FE00E94BF
:10026000980661E080E10E94980661E08AE10E94C0
:10027000980661E08BE10E94980620E042E060E190
:100280008EE990E00E94B40260E670E08EE990E0B2
:100290000E94720568EE73E080E090E00C94110615
:1002A000CF92EF920F9387E0C82E96E0E92E05E0FB
:1002B00024E043E062E08EE990E00E9459030F9150
:1002C000EF90CF900895CF938EE990E00E94A50221
:1002D00086EB90E00E947F03892B99F48EE990E0F1
:1002E0000E94A50268E670E08EE990E00E94720527
:1002F00062E370E080E090E00E9411060E94A0009E
:10030000E7CF86EB90E00E949903C82F682F86EB19
:1003100090E00E947F056C2F8EE990E00E947405AA
:1003200062E370E080E090E00E941106C13639F48B
:1003300061E08AE10E94D4060E94DC001AC0C43643
:1003400039F461E08AE10E94D4060E94D00011C015
:10035000C73739F461E08AE10E94D4060E94900018
:1003600008C0C337A9F461E08AE10E94D4060E9464
:10037000C00064E170E080E090E00E9411060E94FD
:10038000A00065E070E080E090E00E94110638C0B7
:10039000C13439F461E08BE10E94D4060E94DC0094
:1003A0002FC0C43439F461E08BE10E94D4060E946E
:1003B000D00026C0C73539F461E08BE10E94D40635
:1003C0000E9490001DC0C33539F461E08BE10E94AA
:1003D000D406CF910C94C000CF3619F4CF910C9471
:1003E000FC00C03719F4CF910C940401CB3619F4FA
:1003F000CF910C94EC00CC3619F4CF910C94F4000E
:10040000CF910895CF93DF93EC0160E08E810E943D
:10041000D40681E090E00E944D0661E08E810E944A
:10042000D40681E090E00E944D0660E08E810E943B
:10043000D40684E690E0DF91CF910C944D06CF92E4
:10044000DF92EF92FF920F931F93CF93DF936C0194
:100450007C0187E0E80EF11CC0E0D0E0062F10E040
:10046000B8010C2E02C0759567950A94E2F7617089
:10047000F70181917F010E94D4062196C430D105F5
:1004800079F7C601DF91CF911F910F91FF90EF9007
:10049000DF90CF900C940202CF92DF92EF92FF9206
:1004A0000F931F93CF93DF936C017C0187E0E80EDD
:1004B000F11CC0E0D0E0062F10E0B8010C2E02C005
:1004C000759567950A94E2F76170F70181917F0154
:1004D0000E94D4062196C830D10579F7C601DF9174
:1004E000CF911F910F91FF90EF90DF90CF900C94E0
:1004F00002021F93CF93DF93EC01162F642F8C81A0
:100500000E94D4068D818F3F19F060E00E94D406CE
:100510008F85612F84FF06C0CE01DF91CF911F919F
:100520000C944C0270E084E0759567958A95E1F72C
:10053000CE010E941F02612FCE01DF91CF911F914A
:100540000C941F0240E00C94790261E00E94A20228
:1005500080ED97E00C944D06FC016089262F246005
:10056000208B6C600C94A202EF92FF920F931F936A
:10057000CF93DF93EC01423018F08F8588608F872E
:100580004B8B1C8A80E48D8B6E8B70E0605C7F4FA0
:100590006F8B222329F0413019F48F8584608F8777
:1005A00061E08C810E9498068D818F3F19F061E097
:1005B0000E94980661E08E810E9498067E0187E085
:1005C000E80EF11C00E010E08F8584FD03C084E09C
:1005D00090E002C088E090E0081719074CF461E051
:1005E000F70181917F010E9498060F5F1F4FECCFAA
:1005F00080E593EC0E944D0660E08C810E94D40659
:1006000060E08E810E94D4068D818F3F19F060E0FA
:100610000E94D4066F8564FD1DC063E0CE010E9478
:100620001F0284E991E10E944D0663E0CE010E9421
:100630001F0284E991E10E944D0663E0CE010E9411
:100640001F0286E990E00E944D0662E0CE010E9402
:100650001F0216C06062CE010E94A20284E991E1ED
:100660000E944D066F856062CE010E94A20286E95B
:1006700090E00E944D066F856062CE010E94A2024A
:100680006F856062CE010E94A20284E0888BCE0159
:100690000E94AC02CE010E94A50282E0898B66E036
:1006A000CE01DF91CF911F910F91FF90EF900C94AD
:1006B000A202CF92EF920F93FC01138212828AE77B
:1006C00090E09183808364838FEF858346832783C3
:1006D0000087E186C28613861486158616861786DD
:1006E00020E041E060E1CF010F91EF90CF900C94BA
:1006F000B40241E00E94790281E090E00895FC019B
:10070000918D228D892F90E0805C9F4F821B9109F3
:100710008F7399270895FC01918D828D981731F080
:10072000828DE80FF11D858D90E008958FEF9FEF8A
:100730000895FC01918D828D981761F0828DDF0103
:10074000A80FB11D5D968C91928D9F5F9F73928FC4
:1007500090E008958FEF9FEF08958EEF94E0892B3E
:1007600049F080E090E0892B29F00E94FE0481117D
:100770000C9400000895FC01848DDF01A80FB11DC9
:10078000A35ABF4F2C91848D90E001968F739927C7
:10079000848FA689B7892C93A089B1898C918064B4
:1007A0008C93938D848D981306C00288F389E02D75
:1007B00080818F7D80830895EF92FF920F931F9326
:1007C000CF93DF93EC0181E0888F9B8D8C8D981304
:1007D00005C0E889F989808185FD24C0F62E0B8D3E
:1007E00010E00F5F1F4F0F731127E02E8C8DE81262
:1007F0000CC00FB607FCFACFE889F989808185FF24
:10080000F5CFCE010E94BB03F1CF8B8DFE01E80F27
:10081000F11DE35AFF4FF0820B8FEA89FB8980813B
:10082000806207C0EE89FF896083E889F989808149
:100830008064808381E090E0DF91CF911F910F91E0
:10084000FF90EF900895CF93DF93EC01888D88237C
:10085000C9F0EA89FB89808185FD05C0A889B9892D
:100860008C9186FD0FC00FB607FCF5CF808185FF08
:10087000F2CFA889B9898C9185FFEDCFCE010E9476
:10088000BB03E7CFDF91CF910895CF92DF92EF9234
:10089000FF921F93CF93DF93EC016A017B01122F2C
:1008A00060E874E88EE190E0A70196010E940407D9
:1008B000DA01C9010197A109B109B695A7959795E4
:1008C00087959C01E889F98982E08083211580E180
:1008D0003807A8F0E889F989108260E472E48FE0B3
:1008E00090E0A70196010E940407DA01C90101976F
:1008F000A109B109B695A795979587959C01EC85B7
:10090000FD853083EE85FF852083188E1068EC8985
:10091000FD891083EA89FB89808180618083EA896F
:10092000FB89808188608083EA89FB898081806877
:100930008083EA89FB8980818F7D8083DF91CF91DD
:100940001F91FF90EF90DF90CF9008951F920F922C
:100950000FB60F9211242F938F939F93EF93FF93D2
:10096000E091C600F091C7008081E091CC00F09149
:10097000CD0082FD12C090818091CF008F5F8F7378
:100980002091D000821751F0E091CF00F0E0EA54BE
:10099000FF4F958F8093CF0001C08081FF91EF9131
:1009A0009F918F912F910F900FBE0F901F901895D0
:1009B0001F920F920FB60F9211242F933F934F93D4
:1009C0005F936F937F938F939F93AF93BF93EF93B7
:1009D000FF9386EB90E00E94BB03FF91EF91BF91E4
:1009E000AF919F918F917F916F915F914F913F91C7
:1009F0002F910F900FBE0F901F90189586EB90E0EF
:100A00000E947F0321E0892B09F420E0822F0895C2
:100A1000E6EBF0E01382128288EE93E0A0E0B0E013
:100A200084839583A683B78382E890E09183808353
:100A300080E490E09587848729E230E03787268735
:100A40002BE230E0318B208B2AE230E0338B228B9B
:100A5000958B848B8CE290E0978B868B118E128E17
:100A6000138E148E0895CF92DF92EF92FF920F9320
:100A70001F93CF93DF936C017A018B01C0E0D0E02C
:100A8000CE15DF0581F0D8016D918D01D601ED9174
:100A9000FC910190F081E02DC6010995892B11F0A0
:100AA0002196EECF7E01C701DF91CF911F910F916B
:100AB000FF90EF90DF90CF9008956115710579F068
:100AC000FB0101900020E9F73197AF01461B570B5E
:100AD000DC01ED91FC910280F381E02D099480E02E
:100AE00090E008950C945D05DC01ED91FC9101907E
:100AF000F081E02D09946EE870E00C945D050F9391
:100B00001F93CF93DF93EC010E9474058C01CE01FB
:100B10000E947B05800F911FDF91CF911F910F9154
:100B2000089508950E9456060E9491050E940C01A6
:100B3000CDEAD3E00E9463012097E1F30E94AD0368
:100B4000F9CF1F920F920FB60F9211242F933F935C
:100B50008F939F93AF93BF938091540190915501D0
:100B6000A0915601B09157013091530126E0230F17
:100B70002D3720F40296A11DB11D05C029E8230FD1
:100B80000396A11DB11D20935301809354019093AE
:100B90005501A0935601B09357018091580190914F
:100BA0005901A0915A01B0915B010196A11DB11D9F
:100BB0008093580190935901A0935A01B0935B011F
:100BC000BF91AF919F918F913F912F910F900FBE49
:100BD0000F901F9018953FB7F8948091580190910D
:100BE0005901A0915A01B0915B0122B708B600FEED
:100BF00005C02F3F19F00196A11DB11D3FBFBA2FAF
:100C0000A92F982F8827820F911DA11DB11DBC010E
:100C1000CD0143E0660F771F881F991F4A95D1F7D2
:100C200008958F929F92AF92BF92CF92DF92EF92F0
:100C3000FF926B017C010E94EB054B015C01C1142A
:100C4000D104E104F10401F10E9403070E94EB05C5
:100C5000DC01CB0188199909AA09BB09883E934098
:100C6000A105B10560F321E0C21AD108E108F1083D
:100C700088EE880E83E0981EA11CB11CC114D1041B
:100C8000E104F10419F7DBCFFF90EF90DF90CF90F4
:100C9000BF90AF909F908F9008958330910528F07A
:100CA000880F991F04970197F1F70895789483B7F7
:100CB000826083BF83B7816083BF83B7806483BF53
:100CC00083B7886083BF89B7816089BF1EBC8EB53A
:100CD00082608EBD8EB581608EBD8FB581608FBD07
:100CE00085B5846085BD85B5806485BD329A319AAD
:100CF0003098379A1AB80895843059F028F4813022
:100D000099F0823089F00895853031F0873041F0D4
:100D100008958FB58F7702C08FB58F7D8FBD0895F1
:100D200085B58F7D85BD089583B78F7D83BF089579
:100D3000CF93DF9390E0FC01EC58FF4F2491FC012E
:100D4000EC56FF4F8491882361F190E0880F991F42
:100D5000FC01E254FF4FC591D491FC01EC54FF4FCC
:100D6000A591B491611109C09FB7F894888120952D
:100D700082238883EC912E230BC0623061F49FB7ED
:100D8000F8948881322F309583238883EC912E2B21
:100D90002C939FBF06C08FB7F894E8812E2B288331
:100DA0008FBFDF91CF9108951F93CF93DF93282FAB
:100DB00030E0F901EC5AFF4F8491F901EC58FF4FF4
:100DC000D491F901EC56FF4FC491CC23C1F0162FFA
:100DD00081110E947C06EC2FF0E0EE0FFF1FEC5417
:100DE000FF4FA591B4919FB7F894111104C08C9155
:100DF000D095D82302C0EC91DE2BDC939FBFDF910E
:100E0000CF911F9108950895A1E21A2EAA1BBB1B32
:100E1000FD010DC0AA1FBB1FEE1FFF1FA217B307C6
:100E2000E407F50720F0A21BB30BE40BF50B661FDC
:100E3000771F881F991F1A9469F7609570958095A0
:100E400090959B01AC01BD01CF010895EE0FFF1FEE
:0C0E50000590F491E02D0994F894FFCF78
:100E5C00486920417070750056656C616920536556
:100E6C006979616C610000000000790333050000B2
:100E7C000000DC0333057F0399038B0323040D0A65
:0E0E8C00006E616E00696E66006F7666000093
:103E000001C0B2C011248FE594E09EBF8DBF84B77E
:103E1000882349F0982F9A70923029F081FF02C0D0
:103E200097EF94BFCFD085E08EBD82E08BB988E15B
:103E30008AB986E880BD89E189B98EE0B0D0B89AA8
:103E400084E048E15EEF34E021E05DBD4CBD38BF69
:103E500008B602FEFDCF98B3922798BBA895815073
:103E6000A1F7C0E0D0E094D08134B1F491D0182F04
:103E70009AD0123811F482E00DC0113851F486E066
:103E800009C0853709F068C08ED08EE17DD084E905
:103E90007BD083E079D065C0823411F484E103C023
:103EA000853419F485E087D05CC0853541F470D045
:103EB000C82F6ED0D0E0D82BCC0FDD1F51C0863577
:103EC00021F484E078D080E0E5CF8436A1F560D09D
:103ED0005FD0182F5DD0D82E012F90E6E92EF12C5F
:103EE00057D0F70181937F010150D1F75CD0F5E401
:103EF000DF1201C0FFCF40E050E063E0CE0134D0DC
:103F00006E0180E6E82EF12CF7014081818150E0BE
:103F1000582B61E0C60128D0F2E0CF0ED11C125020
:103F200082E0E80EF11C1111EFCF40E050E065E0B7
:103F3000CE011AD016C0843709F0A3CF29D028D0DB
:103F4000F82E26D030D08E01F80185918F011CD03B
:103F5000FA94F110F9CF05C0813511F488E01FD033
:103F600022D080E111D07FCFFC010A0167BFE89524
:103F7000112407B600FCFDCF667029F0452B19F41B
:103F800081E187BFE89508955D9BFECF8CB90895C8
:103F90005F9BFECF5C9901C0A8958CB1089598E114
:103FA00091BD81BD0895F4DF803219F088E0F7DF1C
:103FB000FFCF84E1E9CFCF93C82FEADFC150E9F703
:103FC000CF91F1CF282E80E0EADFE0E0FF270994CF
:023FFE000206B9
:0400000300003E00BB
:00000001FF
