:100000000C942A000C9434000C9434000C943400AA
:100010000C9434000C9434000C9434000C94340090
:100020000C9434000C9434000C9434000C94340080
:100030000C9434000C9434000C9434000C94340070
:100040000C9434000C9434000C9434000C94340060
:100050000C94340011241FBECFE5D4E0DEBFCDBF29
:100060000E9436000C948B000C94000011BA8FEFA4
:1000700087BB82BBBAE055E020E533ECA6E049E05F
:1000800069E170E080B390E08F3F910511F4B8BB57
:100090001DC08E3F910511F4A8BB1DC08D3F910579
:1000A00049F458BBF9013197F1F748BBF901319791
:1000B000F1F714C08C3F910549F458BBF901319711
:1000C000F1F7A8BBF9013197F1F714C08B3F910507
:1000D00011F448BBD7CF8A3F910519F0893F9105AC
:1000E00049F458BBC9010197F1F748BBC901019711
:1000F000F1F7C8CF883F910509F0C4CF58BBC901BB
:100100000197F1F748BB80E29EE4FB013197F1F7DC
:0A0110000197D9F7B7CFF894FFCF9D
:00000001FF
